{
  "contractName": "DaarToken",
  "abi": [
    {
      "constant": true,
      "inputs": [],
      "name": "name",
      "outputs": [
        {
          "name": "",
          "type": "string"
        }
      ],
      "payable": false,
      "stateMutability": "view",
      "type": "function"
    },
    {
      "constant": false,
      "inputs": [
        {
          "name": "_spender",
          "type": "address"
        },
        {
          "name": "_value",
          "type": "uint256"
        }
      ],
      "name": "approve",
      "outputs": [
        {
          "name": "",
          "type": "bool"
        }
      ],
      "payable": false,
      "stateMutability": "nonpayable",
      "type": "function"
    },
    {
      "constant": true,
      "inputs": [],
      "name": "totalSupply",
      "outputs": [
        {
          "name": "",
          "type": "uint256"
        }
      ],
      "payable": false,
      "stateMutability": "view",
      "type": "function"
    },
    {
      "constant": false,
      "inputs": [
        {
          "name": "_from",
          "type": "address"
        },
        {
          "name": "_to",
          "type": "address"
        },
        {
          "name": "_value",
          "type": "uint256"
        }
      ],
      "name": "transferFrom",
      "outputs": [
        {
          "name": "",
          "type": "bool"
        }
      ],
      "payable": false,
      "stateMutability": "nonpayable",
      "type": "function"
    },
    {
      "constant": true,
      "inputs": [],
      "name": "INITIAL_SUPPLY",
      "outputs": [
        {
          "name": "",
          "type": "uint256"
        }
      ],
      "payable": false,
      "stateMutability": "view",
      "type": "function"
    },
    {
      "constant": true,
      "inputs": [],
      "name": "decimals",
      "outputs": [
        {
          "name": "",
          "type": "uint8"
        }
      ],
      "payable": false,
      "stateMutability": "view",
      "type": "function"
    },
    {
      "constant": false,
      "inputs": [
        {
          "name": "_spender",
          "type": "address"
        },
        {
          "name": "_subtractedValue",
          "type": "uint256"
        }
      ],
      "name": "decreaseApproval",
      "outputs": [
        {
          "name": "",
          "type": "bool"
        }
      ],
      "payable": false,
      "stateMutability": "nonpayable",
      "type": "function"
    },
    {
      "constant": true,
      "inputs": [
        {
          "name": "_owner",
          "type": "address"
        }
      ],
      "name": "balanceOf",
      "outputs": [
        {
          "name": "",
          "type": "uint256"
        }
      ],
      "payable": false,
      "stateMutability": "view",
      "type": "function"
    },
    {
      "constant": true,
      "inputs": [],
      "name": "owner",
      "outputs": [
        {
          "name": "",
          "type": "address"
        }
      ],
      "payable": false,
      "stateMutability": "view",
      "type": "function"
    },
    {
      "constant": true,
      "inputs": [],
      "name": "symbol",
      "outputs": [
        {
          "name": "",
          "type": "string"
        }
      ],
      "payable": false,
      "stateMutability": "view",
      "type": "function"
    },
    {
      "constant": false,
      "inputs": [
        {
          "name": "_to",
          "type": "address"
        },
        {
          "name": "_value",
          "type": "uint256"
        }
      ],
      "name": "transfer",
      "outputs": [
        {
          "name": "",
          "type": "bool"
        }
      ],
      "payable": false,
      "stateMutability": "nonpayable",
      "type": "function"
    },
    {
      "constant": false,
      "inputs": [
        {
          "name": "_spender",
          "type": "address"
        },
        {
          "name": "_addedValue",
          "type": "uint256"
        }
      ],
      "name": "increaseApproval",
      "outputs": [
        {
          "name": "",
          "type": "bool"
        }
      ],
      "payable": false,
      "stateMutability": "nonpayable",
      "type": "function"
    },
    {
      "constant": true,
      "inputs": [
        {
          "name": "_owner",
          "type": "address"
        },
        {
          "name": "_spender",
          "type": "address"
        }
      ],
      "name": "allowance",
      "outputs": [
        {
          "name": "",
          "type": "uint256"
        }
      ],
      "payable": false,
      "stateMutability": "view",
      "type": "function"
    },
    {
      "constant": false,
      "inputs": [
        {
          "name": "newOwner",
          "type": "address"
        }
      ],
      "name": "transferOwnership",
      "outputs": [],
      "payable": false,
      "stateMutability": "nonpayable",
      "type": "function"
    },
    {
      "inputs": [],
      "payable": false,
      "stateMutability": "nonpayable",
      "type": "constructor"
    },
    {
      "anonymous": false,
      "inputs": [
        {
          "indexed": true,
          "name": "previousOwner",
          "type": "address"
        },
        {
          "indexed": true,
          "name": "newOwner",
          "type": "address"
        }
      ],
      "name": "OwnershipTransferred",
      "type": "event"
    },
    {
      "anonymous": false,
      "inputs": [
        {
          "indexed": true,
          "name": "owner",
          "type": "address"
        },
        {
          "indexed": true,
          "name": "spender",
          "type": "address"
        },
        {
          "indexed": false,
          "name": "value",
          "type": "uint256"
        }
      ],
      "name": "Approval",
      "type": "event"
    },
    {
      "anonymous": false,
      "inputs": [
        {
          "indexed": true,
          "name": "from",
          "type": "address"
        },
        {
          "indexed": true,
          "name": "to",
          "type": "address"
        },
        {
          "indexed": false,
          "name": "value",
          "type": "uint256"
        }
      ],
      "name": "Transfer",
      "type": "event"
    }
  ],
  "bytecode": "0x60c0604052601f60808190527f4469676974616c204173736574204175746f6d6174656420526576656e75650060a090815261003e916004919061012f565b506040805180820190915260048082527f444141520000000000000000000000000000000000000000000000000000000060209092019182526100839160059161012f565b506006805460ff19166012179081905560ff16600a0a6007819055633b9aca00026008553480156100b357600080fd5b50600380546008546001819055600160a060020a03338116600160a060020a031993841681179093168317845560009283526020838152604080852084905594548551938452945194909116937fddf252ad1be2c89b69c2b068fc378daa952ba7f163c4a11628f55a4df523b3ef9281900390910190a36101ca565b828054600181600116156101000203166002900490600052602060002090601f016020900481019282601f1061017057805160ff191683800117855561019d565b8280016001018555821561019d579182015b8281111561019d578251825591602001919060010190610182565b506101a99291506101ad565b5090565b6101c791905b808211156101a957600081556001016101b3565b90565b6109ff806101d96000396000f3006080604052600436106100cf5763ffffffff7c010000000000000000000000000000000000000000000000000000000060003504166306fdde0381146100d4578063095ea7b31461015e57806318160ddd1461019657806323b872dd146101bd5780632ff2e9dc146101e7578063313ce567146101fc578063661884631461022757806370a082311461024b5780638da5cb5b1461026c57806395d89b411461029d578063a9059cbb146102b2578063d73dd623146102d6578063dd62ed3e146102fa578063f2fde38b14610321575b600080fd5b3480156100e057600080fd5b506100e9610344565b6040805160208082528351818301528351919283929083019185019080838360005b8381101561012357818101518382015260200161010b565b50505050905090810190601f1680156101505780820380516001836020036101000a031916815260200191505b509250505060405180910390f35b34801561016a57600080fd5b50610182600160a060020a03600435166024356103d2565b604080519115158252519081900360200190f35b3480156101a257600080fd5b506101ab61043c565b60408051918252519081900360200190f35b3480156101c957600080fd5b50610182600160a060020a0360043581169060243516604435610442565b3480156101f357600080fd5b506101ab6105c2565b34801561020857600080fd5b506102116105c8565b6040805160ff9092168252519081900360200190f35b34801561023357600080fd5b50610182600160a060020a03600435166024356105d1565b34801561025757600080fd5b506101ab600160a060020a03600435166106ca565b34801561027857600080fd5b506102816106e5565b60408051600160a060020a039092168252519081900360200190f35b3480156102a957600080fd5b506100e96106f4565b3480156102be57600080fd5b50610182600160a060020a036004351660243561074f565b3480156102e257600080fd5b50610182600160a060020a0360043516602435610848565b34801561030657600080fd5b506101ab600160a060020a03600435811690602435166108ea565b34801561032d57600080fd5b50610342600160a060020a0360043516610915565b005b6004805460408051602060026001851615610100026000190190941693909304601f810184900484028201840190925281815292918301828280156103ca5780601f1061039f576101008083540402835291602001916103ca565b820191906000526020600020905b8154815290600101906020018083116103ad57829003601f168201915b505050505081565b600160a060020a03338116600081815260026020908152604080832094871680845294825280832086905580518681529051929493927f8c5be1e5ebec7d5bd14f71427d1e84f3dd0314c0f7b2291e5b200ac8c7c3b925929181900390910190a350600192915050565b60015490565b6000600160a060020a038316151561045957600080fd5b600160a060020a03841660009081526020819052604090205482111561047e57600080fd5b600160a060020a03808516600090815260026020908152604080832033909416835292905220548211156104b157600080fd5b600160a060020a0384166000908152602081905260409020546104da908363ffffffff6109ae16565b600160a060020a03808616600090815260208190526040808220939093559085168152205461050f908363ffffffff6109c016565b600160a060020a0380851660009081526020818152604080832094909455878316825260028152838220339093168252919091522054610555908363ffffffff6109ae16565b600160a060020a038086166000818152600260209081526040808320338616845282529182902094909455805186815290519287169391927fddf252ad1be2c89b69c2b068fc378daa952ba7f163c4a11628f55a4df523b3ef929181900390910190a35060019392505050565b60085481565b60065460ff1681565b600160a060020a0333811660009081526002602090815260408083209386168352929052908120548083111561062e57600160a060020a033381166000908152600260209081526040808320938816835292905290812055610665565b61063e818463ffffffff6109ae16565b600160a060020a033381166000908152600260209081526040808320938916835292905220555b600160a060020a0333811660008181526002602090815260408083209489168084529482529182902054825190815291517f8c5be1e5ebec7d5bd14f71427d1e84f3dd0314c0f7b2291e5b200ac8c7c3b9259281900390910190a35060019392505050565b600160a060020a031660009081526020819052604090205490565b600354600160a060020a031681565b6005805460408051602060026001851615610100026000190190941693909304601f810184900484028201840190925281815292918301828280156103ca5780601f1061039f576101008083540402835291602001916103ca565b6000600160a060020a038316151561076657600080fd5b600160a060020a03331660009081526020819052604090205482111561078b57600080fd5b600160a060020a0333166000908152602081905260409020546107b4908363ffffffff6109ae16565b600160a060020a0333811660009081526020819052604080822093909355908516815220546107e9908363ffffffff6109c016565b600160a060020a03808516600081815260208181526040918290209490945580518681529051919333909316927fddf252ad1be2c89b69c2b068fc378daa952ba7f163c4a11628f55a4df523b3ef92918290030190a350600192915050565b600160a060020a033381166000908152600260209081526040808320938616835292905290812054610880908363ffffffff6109c016565b600160a060020a0333811660008181526002602090815260408083209489168084529482529182902085905581519485529051929391927f8c5be1e5ebec7d5bd14f71427d1e84f3dd0314c0f7b2291e5b200ac8c7c3b9259281900390910190a350600192915050565b600160a060020a03918216600090815260026020908152604080832093909416825291909152205490565b60035433600160a060020a0390811691161461093057600080fd5b600160a060020a038116151561094557600080fd5b600354604051600160a060020a038084169216907f8be0079c531659141344cd1fd0a4f28419497f9722a3daafe3b4186f6b6457e090600090a36003805473ffffffffffffffffffffffffffffffffffffffff1916600160a060020a0392909216919091179055565b6000828211156109ba57fe5b50900390565b818101828110156109cd57fe5b929150505600a165627a7a723058200c6235ac9ae3b09716727b8e9c53c99ff6404f0dcdacc24309b987dccbf07b7d0029",
  "source": "pragma solidity 0.4.23;\n\nimport '../../node_modules/zeppelin-solidity/contracts/token/ERC20/StandardToken.sol';\nimport '../../node_modules/zeppelin-solidity/contracts/ownership/Ownable.sol';\n\n\ncontract DaarToken is StandardToken, Ownable {\n    string public name = \"Digital Asset Automated Revenue\";\n    string public symbol = \"DAAR\";\n    uint8 public decimals = 18;\n    uint dmult = (10 ** uint256(decimals));\n    uint public INITIAL_SUPPLY = 1000000000 * dmult;\n    \n    constructor () public {\n        totalSupply_ = INITIAL_SUPPLY;\n        owner = msg.sender;\n        \n        balances[msg.sender] = INITIAL_SUPPLY;\n        emit Transfer (address(0), owner, INITIAL_SUPPLY);\n    }\n}\n\n",
  "sourcePath": "/Users/andreykladov/dtest2/contracts/DaarToken.sol",
  "compiler": {
    "name": "solc",
    "version": "0.4.23+commit.124ca40d.Emscripten.clang"
  },
  "schemaVersion": "2.0.0",
  "updatedAt": "2018-05-19T21:03:42.067Z"
}